:0400000037EF0CF0DA
:1000080000C01EF001C01DF002C01CF003C01BF0B0
:1000180004C01AF005C019F008C018F009C017F09C
:100028000AC016F00BC015F0E1CF27F0E2CF28F098
:10003800E9CF25F0EACF26F0F3CF23F0F4CF24F070
:10004800F5CF22F0F8CF1FF0F7CF20F0F6CF21F050
:1000580086EC0AF022C0F5FF1FC0F8FF20C0F7FFAA
:1000680021C0F6FF23C0F3FF24C0F4FF1EC000F038
:100078001DC001F01CC002F01BC003F01AC004F040
:1000880019C005F018C008F017C009F016C00AF02A
:1000980015C00BF025C0E9FF26C0EAFF27C0E1FF25
:0600A80028C0E2FF110078
:1000AE001E0E716E100E00016D6F040E6E6F6DC020
:1000BE00E1FF6EC0E2FFE69E6DC0E1FF6EC0E2FFA3
:1000CE00E69C040E6D25E16E000E6E21E26EE68C4E
:1000DE00180E666F040E676F66C0E1FF67C0E2FF21
:1000EE00E69E66C0E1FF67C0E2FFE69C040E662551
:1000FE00E16E000E6721E26EE68C020E6D25E16E5A
:10010E00000E6E21E26E5EC0E6FF5FC0E6FF010EDE
:10011E006D25E16E000E6E21E26E400EE66E6DC034
:10012E00E9FF6EC0EAFFEECF00F06DC0E1FF6EC0DA
:10013E00E2FF400E0014E66E6DC0E9FF6EC0EAFFEE
:10014E00EECF00F0880E00126DC0E1FF6EC0E2FF30
:10015E0000C0E6FF6DC062F06EC063F0040E6D1954
:08016E00006E00C06DF01200EC
:100176000B6A0A6A096A00500402F4CF09F0F3CF49
:1001860008F001500502F4CF0BF0F3CF0AF000504F
:100196000502F3500926F4500A22E86A0B220150A0
:1001A6000402F3500926F4500A22E86A0B2208C01A
:1001B60000F009C001F00AC002F00BC003F0120003
:1001C60004012251010A11E120C401F01F0E01169B
:1001D6000150000A0AE1548E2151030A04E1010E7E
:1001E60000016A6F02D000016A6B04012251000A05
:1001F600D8A48BD020C401F01F0E01160150020AAC
:10020600D8A483D024C401F00F0E01160150000AB1
:10021600D8B47BD0548E24BF16D024C403F00F0E5E
:10022600031603C000F0000E016E00360090013682
:100236006B0E0024E96E000E0120EA6EEECF04F08C
:10024600EECF05F015D024C403F00F0E031603C03D
:1002560000F0000E016E003600900136640E002498
:10026600E96E000E0120EA6EEECF04F0EECF05F047
:100276002151030A07E104C0E1FF05C0E2FF840E35
:10028600E66E43D024C400F00F0E0016700E026E08
:100296000F0E036E00500226D8B0032A02C0E9FFF3
:1002A60003C0EAFFFE0EEE14006EEECF01F0FF0E65
:1002B600011602C0E1FF03C0E2FF00C0E6FF01C075
:1002C600E6FF24AF11D004C0E1FF05C0E2FFE66AF5
:1002D600040E0418006E00C004F004C0E1FF05C05F
:1002E600E2FF400EE66E11D004C0E1FF05C0E2FF5A
:1002F600880EE66E040E0418006E00C004F004C0FA
:0C030600E1FF05C0E2FFC80EE66E120029
:1003120020C401F01F0E01160150010A01E08FD026
:1003220004012451000A01E08AD02151060A41E168
:1003320036D000016951010A17E1F60E006E190E5E
:10034200016E000E026E120E0026000E0122022223
:1003520000C051F001C052F002C053F0090E556EB8
:10036200000E566EC00E546E24D000016951010A6F
:1003720012E11F0E006E1A0E016E000E026E00C018
:1003820051F001C052F002C053F0210E556E000E22
:10039200566EC00E546E0DD0800E546E0AD00401FB
:1003A2002351210AC6E02351220ADFE02351230A06
:1003B200F3E020C401F0600E0116050E006E00503D
:1003C20004E00132019EFF0FFBD70150010A01E058
:1003D20036D022D034D033D0470E516E000E526E3A
:1003E200010E556E000E566EC10E546E28D0800E50
:1003F200546E23C447F023D0480E516E000E526E45
:10040200010E556E000E566E810E546E18D0800E7F
:10041200546E22C448F013D004012151010ADAE0DB
:100422002151090AD8E02151020AD6E021510A0AD3
:10043200DEE02151030AE0E021510B0AE8E012005C
:100442000401286B296B47D00401548E28810001D6
:100452006A51010A02E10401288352D0548E50D01D
:100462000401548E24BF16D024C403F00F0E0316C9
:1004720003C000F0000E016E0036009001366B0ED4
:100482000024E96E000E0120EA6EEECF04F0EECFFA
:1004920005F015D024C403F00F0E031603C000F0BC
:1004A200000E016E003600900136640E0024E96EE3
:1004B200000E0120EA6EEECF04F0EECF05F004C08C
:1004C200E9FF05C0EAFFEECF01F001A403D0040169
:1004D200010E286F15D020C401F01F0E0116015025
:1004E200000AB2E020C401F01F0E01160150010AF9
:1004F200B5E020C401F01F0E01160150020AB0E05F
:1005020054AE07D0280E516E040E526E5480020E65
:04051200556E120010
:10051600548E716A506A22C469F000016951000A5A
:1005260003E1100E686F03D0200E686FBDDD120068
:1005360004012051800AD8A471D0C00E546E64D034
:10054600720E006E1A0E016E000E026E00C051F0A1
:1005560001C052F002C053F0120E556E000E566ED8
:100566005DD0030E006E000E016E22C404F0000E74
:10057600056EFEDD350E0024E96E000E0120EA6EE2
:10058600EECF51F0EECF52F0EECF53F0020E5124E3
:10059600F66E000E5220F76E000E5320F86E09001C
:1005A600F5CF00F00900F5CF01F000C055F001C00D
:1005B60056F034D022514F5C23E3030E006E000E3A
:1005C600016E22C404F0000E056ED2DD2C0E00244E
:1005D600E96E000E0120EA6EEECF51F0EECF52F03A
:1005E600EECF53F051C0F6FF52C0F7FF53C0F8FFED
:1005F6000900F5CF00F000C055F0000E566E01D090
:10060600546A0CD0546A0AD02351010A99E0235146
:0E061600020AA7E02351030ACDE0F4D7120038
:10062400000E565C02E1080E555C11E255C003F061
:1006340056C004F000016151000A03E1010E616F2C
:1006440005D06151010A02E1020E616F04D0080E67
:10065400036E000E046E000164C0E1FF65C0E2FF9A
:10066400E69264C0E1FF65C0E2FFE69064C0E9FF82
:1006740065C0EAFFEECF00F064C0E1FF65C0E2FFB1
:1006840004500010E66E010E6425E16E000E652133
:10069400E26E03C0E6FF0350555C006E04505658EA
:1006A400016E00C055F001C056F0280E4D6E040EC8
:1006B4004E6E54B02FD0035004102BE051C0F6FFFF
:1006C40052C0F7FF53C0F8FF0900F5CF00F04DC04A
:1006D400E1FF4EC0E2FF00C0E6FF4D4A4E2A010E84
:1006E4005124006E000E5220016E000E5320026E43
:1006F40000C051F001C052F002C053F0010E035C7F
:10070400006E000E0458016E00C003F001C004F036
:10071400D2D724D00350041021E051C0E9FF52C0C5
:10072400EAFF4DC0E1FF4EC0E2FFEECFE6FF4D4AC7
:100734004E2A010E5124006E000E5220016E00C09C
:1007440051F001C052F0010E035C006E000E04581B
:0E075400016E00C003F001C004F0DCD71200FB
:1007620020C401F0600E0116050E006E005004E078
:100772000132019EFF0FFBD70150000A01E05AD05F
:1007820036D0548E080E0001686F54D0D3DE52D09A
:10079200C1DE50D0690E516E000E526E5480010EB1
:1007A200556E548E47D04CDE45D00CDD43D0500EF2
:1007B200006E000E016E040124510026D8B0012AF9
:1007C20000C051F001C052F05480010E556E548E9B
:1007D20031D0548E500EE16E000EE26E2451E126AD
:1007E200D8B0E22A22C4E6FF25D024D023D00401C7
:1007F2002151050AC6E02151060AC8E02151090A21
:10080200C7E02151080AC6E02151000ACCE021517B
:10081200010ACBE02151030AC8E021510A0AC7E0CC
:1008220021510B0AD6E02151070ADFE021510C0ABF
:06083200DDE0DCD712003E
:10083800F60E356E190E366E000E376E840E2C6E5F
:100848001A0E2D6E000E2E6E5A0E2F6E1A0E306E68
:10085800000E316E400E326E1A0E336E000E346E7C
:0208680012007C
:0E086A00160E6F6E9F0E6B6E3B0E696E1200C7
:080878004C5201E04ADD1200C0
:100880006D9854BE4AD03CAE29D0020E466E010E81
:1008900000016425E16E000E6521E26EE66A64C027
:1008A000E1FF65C0E2FFC80EE66E010E4924E16E6D
:1008B000000E4A20E26E080EE66E020E4924E16E3A
:1008C000000E4A20E26E280EE66E040EE66E49C067
:1008D000E1FF4AC0E2FFC80EE66E1ED0010E4924B9
:1008E000E16E000E4A20E26E080EE66E020E49240A
:1008F000E16E000E4A20E26E200EE66E040EE66EF9
:1009000049C0E1FF4AC0E2FF8C0EE66E64C0E1FF21
:1009100065C0E2FF840EE66E7FD03CBE7DD0040150
:1009200020AF52D05650275D02E15550265D04E2BB
:1009300026C455F027C456F075DE010E466E010E32
:100940004924E16E000E4A20E26E080EE66E020EA9
:100950004924E16E000E4A20E26E200EE66E040E7F
:10096000E66E49C0E1FF4AC0E2FF800EE66E4B6AC8
:10097000010E5C24E16E000E5D20E26E080EE66E54
:10098000020E5C24E16E000E5D20E26E200EE66E2B
:10099000040EE66E5CC0E1FF5DC0E2FF840EE66E11
:1009A000010E4B6E020E00016425E16E000E652102
:1009B000E26E280EE66E040EE66E64C0E1FF65C0CE
:1009C000E2FFC80EE66E28D00001020E466E010E50
:1009D0006425E16E000E6521E26EE66A64C0E1FF07
:1009E00065C0E2FFC80EE66E010E4924E16E000EFE
:1009F0004A20E26E080EE66E020E4924E16E000EF9
:100A00004A20E26E280EE66E040EE66E49C0E1FF53
:0A0A10004AC0E2FFC80EE66E1200B5
:100A1A00466A64C0E1FF65C0E2FFE66A040E0001AF
:100A2A006419E16E65C0E2FF000EE21AE66A3CBE96
:040A3A003C9E1200CC
:100A3E00010E5C24E96E000E5D20EA6EEECF00F032
:100A4E0000C002F0000E3E5C02E102503D5C03E28B
:100A5E003DC002F00AD002503D5C006E000E3E58C2
:100A6E00016E00C03DF001C03EF0036A0250035C0F
:100A7E001CE2280EE96E040EEA6E0350E926D8B089
:100A8E00EA2AEECF00F03AC0E1FF3BC0E2FF00C021
:100A9E00E6FF010E3A24006E000E3B20016E00C0F0
:100AAE003AF001C03BF0032AE1D7000E006E3E5033
:100ABE00005C02E13D50000828E2010E4924E16E7F
:100ACE00000E4A20E26E080EE66E020E4924E16E1A
:100ADE00000E4A20E26E280EE66E040EE66E5CC034
:100AEE00E9FF5DC0EAFFEECF00F000BC07D049C0C1
:100AFE00E1FF4AC0E2FFC80EE66E06D049C0E1FF34
:100B0E004AC0E2FF880EE66E19D0010E4924E16E4E
:100B1E00000E4A20E26E080EE66E020E4924E16EC9
:100B2E00000E4A20E26E200EE66E040EE66E49C0FE
:0E0B3E00E1FF4AC0E2FF840EE66E3C9E12000C
:040B4C00A19A120058
:100B50006D92699468A403D0FB0E6816FBD712004F
:100B600064C0E9FF65C0EAFFEECF00F000AE05D03B
:100B700064C0E1FF65C0E2FFE66A0001616B466A9E
:0E0B8000556A566A546AEDDD77DE7ADE1200A1
:100B8E0070A01CD05CC0E9FF5DC0EAFFEECF01F0A3
:100B9E000150800A12E164C0E9FF65C0EAFFEECFA2
:100BAE0001F0000E000A02E1840E011806E15CC09D
:100BBE00E1FF5DC0E2FF8C0EE66E7090DF0E6816F0
:020BCE00120013
:100BD00033DE0001626B636B2A6A2B6A6A6A686A99
:100BE00044DE6D8C6E6A716A6D9C436A446A000EC5
:100BF000445C02E1080E435C17E243C000F044C0CD
:100C000001F0003600900136003600900136000EEB
:100C10000024E16E040E0120E26EE66AE66AE66AEE
:100C2000E66A434A442AE3D7160E706E68A603D0DC
:100C3000F70E6816FBD7546A3C6A3D6A3E6A6D98A7
:0E0C4000080E646F040E656F696B686B12001E
:0A0C4E006984EF0E68166D82120033
:100C5800040E00016419006E00C064F06851080AAF
:100C68000AE122C46EFF6E50000803E2100E686F9E
:100C780002D0040E686F4650010A3BE1020E64255B
:100C8800E16E000E6521E26E280EE66E040EE66E39
:100C9800C5DC00016151020A07E164C0E1FF65C0DB
:100CA800E2FF840EE66E24D0040E6419006E00C0C4
:100CB80064F064C0E9FF65C0EAFFEECF00F000BC55
:100CC8000CD0040E6419006E00C064F064C0E1FF2B
:100CD80065C0E2FFC80EE66E0BD0040E6419006E04
:100CE80000C064F064C0E1FF65C0E2FF880EE66EF4
:060CF80001D08FDE1200A6
:100CFE004650020A02E19CDE1ED088DE4B50000AEE
:100D0E0019E1010E4924E16E000E4A20E26E080E32
:100D1E00E66E020E4924E16E000E4A20E26E200EAF
:100D2E00E66E040EE66E49C0E1FF4AC0E2FF8C0E8D
:080D3E00E66E01D04B6A1200C1
:0A0D4600D08EA28AA08AF28E12005D
:100D5000240E0C6EB50E0D6E0D2EFED70C2EFCD78C
:060D60000000000012007B
:100D660000017D6B7E6B7F6B020E7A25F66E000EA0
:100D76007B21F76E000E7C21F86E0900F5CF05F099
:100D8600030E7A25F66E000E7B21F76E000E7C218F
:100D9600F86E0900F5CF00F000C003F0000E046EF7
:100DA60003C001F0006A05500024066E000E012003
:100DB600076E7AC008F07BC009F07CC00AF0010E0D
:100DC6000824F66E000E0920F76E000E0A20F86E53
:100DD6000900F5CF01F00150020A1BE1060E0824B6
:100DE600F66E000E0920F76E000E0A20F86E090056
:100DF600F5CF01F001507D5D0CE2060E0824F66E7B
:100E0600000E0920F76E000E0A20F86E0900F5CFD5
:100E16007DF0010E0824F66E000E0920F76E000E16
:100E26000A20F86E0900F5CF01F00150040A1BE113
:100E3600080E0824F66E000E0920F76E000E0A2032
:100E4600F86E0900F5CF01F001507D5D0CE2080E49
:100E56000824F66E000E0920F76E000E0A20F86EC2
:100E66000900F5CF7DF008C0F6FF09C0F7FF0AC0FC
:100E7600F8FF0900F5CF00F000507E25016E000E48
:100E86007F21026E01C07EF002C07FF00750025C37
:100E960002E10650015C01E30FD008C0F6FF09C06D
:100EA600F7FF0AC0F8FF0900F5CF00F0005008264A
:0E0EB600000E09220A2283D77DC000F0120030
:100EC400000E00017B1902E1000E7A1902E1016AA9
:100ED4000AD07AC0E9FF7BC0EAFFEECF00F0000E33
:0C0EE40000BE010E016E01C000F0120003
:100EF00000017B51000A12E07AC000F0000E016E82
:100F0000003600900136640E0024E96E000E0120C8
:100F1000EA6EEECF04F0EECF05F011D07AC000F00B
:100F2000000E016E0036009001366B0E0024E96E53
:100F3000000E0120EA6EEECF04F0EECF05F0020EB7
:100F40000424E16E000E0520E26E7CC0E6FF7DC049
:100F5000E6FF010E0424E16E000E0520E26E7EC065
:100F6000E6FF04C0E9FF05C0EAFFEECF00F004C0D1
:100F7000E1FF05C0E2FF400E0014E66E04C0E9FF89
:100F800005C0EAFFEECF00F0880E001204C0E1FFBA
:100F900005C0E2FF00C0E6FF7B51000A1BE07AC0FB
:100FA00000F0000E016E003600900136640E002441
:100FB000026E000E0120036E02C0E9FF03C0EAFFCB
:100FC000040EEE18006E02C0E1FF03C0E2FF00C095
:100FD000E6FF1AD07AC000F0000E016E00360090D5
:100FE00001366B0E0024026E000E0120036E02C05B
:100FF000E9FF03C0EAFF040EEE18006E02C0E1FF35
:1010000003C0E2FF00C0E6FF04C000F005C001F02D
:021010001200CC
:1010120000016851000A0AE16D6A696A25DC6DB651
:1010220002D06D86FCD70001010E686F6851010A7B
:1010320008E16DBA06D0686A696A69806988020E39
:10104200686F68A405D069A403D0FB0E68167FDD23
:101052006DA202D07ADDD5D068A018D069A016D0D2
:10106200B6DD040E686F200E0401026F040E036FDA
:10107200080E016F000E0015006E00C000F48C0E09
:101082000011006E00C000F4FE0E681668A805D0BC
:1010920069A803D0DBDDEF0E681668AC04D069AC3A
:1010A20002D0BF0E681668AA03D069AA01D06EDD0D
:1010B20068A202D069B26A6A040E0001685D02E2A7
:1010C20044DD9FD069A69CD07B6B040E7B5DD8B0BB
:1010D20097D068A691D06CCF5BF0F70E6816780EA9
:1010E2005B14016E0150000AD8A485D0FD0E5B147A
:1010F200016E026AFF0E0216000E021802E1000ED5
:1011020001186BE17E0E5B14016E01C003F0033225
:10111200039E03C000F0000E016E003600900136FF
:10112200003600900136000E0024026E040E0120EB
:10113200036E02C05CF003C05DF002C049F003C060
:101142004AF0040E4918006E00C049F002C0E9FFDF
:1011520003C0EAFFEECF00F000C001F03C0E011622
:101162000132019E0132019E01500D0A34E1020E4C
:101172005C24E96E000E5D20EA6EEECF01F0EECF48
:1011820002F00250040A02E1280E011822E1020EC6
:101192005C24E16E000E5D20E26E200EE66E040E0F
:1011A200E66E7A6B080E7A5D14E2200EE16E040E92
:1011B200E26E7A51E126D8B0E22A280EE96E040ED8
:1011C200EA6E7A51E926D8B0EA2AEECFE6FF7A2B08
:1011D200E9D7C5DC01D092DD0DD0FD0E5B14016EA6
:1011E200026AFF0E0216000E021802E1040E011836
:1011F20001E131DD00D001D003D000017B2B65D7A6
:04120200A4DC120056
:10120600720E006E1A0E016E000E026E0E0E002495
:10121600F66E000E0120F76E000E0220F86E090031
:10122600F5CF03F003C004F00F0E0024F66E000E97
:101236000120F76E000E0220F86E0900F5CF01F0CE
:101246000150035C12E2720E006E1A0E016E000E61
:10125600026E0F0E0024F66E000E0120F76E000ED1
:101266000220F86E0900F5CF04F0720E006E1A0E19
:10127600016E000E026E100E0024F66E000E0120A6
:10128600F76E000E0220F86E0900F5CF01F001504E
:10129600045C12E2720E006E1A0E016E000E026EF1
:1012A600100E0024F66E000E0120F76E000E0220CE
:0E12B600F86E0900F5CF04F004C000F012003D
:0A12C400530E0D6E0D2EFED7120022
:0C12CE0000000000000000000000120002
:1012DA000001796B200E685D03E36DB201D002D084
:1012EA00006A2DD062C07AF063C07BF0E6DD00525E
:1012FA0025E162C077F063C078F0000E631902E15D
:10130A00000E62190AE0010E7725E96E000E7821B7
:10131A00EA6EEECF00F000C079F076C07AF07B6B0F
:10132A0073C07CF074C07DF075C07EF0DCDD00C057
:10133A0062F001C063F079C000F001D0006A1200C7
:10134A00000173BF02D0819401D0818473BD02D0A1
:10135A00819601D0818673BB02D0819801D08188A1
:10136A0073B902D0819A01D0818A60B102D081809A
:10137A0001D081908182A6DF819273B702D08194D5
:10138A0001D0818473B502D0819601D0818673B36E
:10139A0002D0819801D0818873B102D0819A01D09C
:1013AA00818A60B102D0818001D0819081828ADFF6
:0E13BA00819260A102D0C7DC01D07FDF12005B
:1013C8001EDF00C073F0F60E00017A6F190E7B6FF6
:1013D800000E7C6FC4DC00C074F07351005C03E243
:0C13E80073C000F002D074C000F01200CE
:1013F400200E0001685D03E36DB201D002D0006AE3
:101404004ED02AC07AF02BC07BF05ADD005246E160
:1014140076C07AF0010E7B6F73C07CF074C07DF0EF
:1014240075C07EF063DD00C02AF001C02BF0576A5E
:10143400586A596A5A6A2AC07AF02BC07BF040DD98
:10144400005216E0200E685D03E36DB201D002D0B5
:10145400006A25D0010E016E0150000A01E1D7DDBA
:101464005750581059105A1002E0006A18D0E3D7A8
:101474002AC077F02BC078F0000E2B1802E1000E82
:101484002A180AE0010E00017725E96E000E782182
:10149400EA6EEECF00F003D0006A01D0006A1200B9
:0C14A400240E0D6E0D2EFED7000012006D
:1014B00000016851000A0BE16D6A696A35EC04F0BD
:1014C00042DC6DB602D06D86FCD7010E686F12004B
:1014D0000900F5CFE6FF0006FBE10106F9E1120085
:1014E00073DF00C04FF0010E4C6E6FC05EF070C035
:1014F0005FF071C038F072C039F0E8EC05F0010E11
:0C150000016E0150010A01E1D3DF12006E
:10150C0000016851010A07E16DBA05D0686A69806B
:10151C006988020E686F68A406D069A404D0FB0E1B
:10152C006816A8EC05F06DA203D0A6EC05F0DDD092
:10153C0068A019D069A017D0E8EC05F0040E686F0C
:10154C00200E0401026F040E036F080E016F000ED3
:10155C000015006E00C000F48C0E0011006E00C06F
:10156C0000F4FE0E681668A806D069A804D027EC13
:10157C0006F0EF0E681668AC04D069AC02D0BF0E52
:10158C00681668AA04D069AA02D0C7EC05F068A254
:10159C0002D069B26A6A040E0001685D03E2A6EC2F
:1015AC0005F0A3D069A69FD0816B040E815DD8B0E5
:1015BC009AD068A694D06CCF5BF0F70E6816780EB4
:1015CC005B14016E0150000AD8A488D0FD0E5B1488
:1015DC00016E026AFF0E0216000E021802E1000EE6
:1015EC0001186DE17E0E5B14016E01C003F0033235
:1015FC00039E03C000F0000E016E00360090013611
:10160C00003600900136000E0024026E040E0120FC
:10161C00036E02C05CF003C05DF002C049F003C071
:10162C004AF0040E4918006E00C049F002C0E9FFF0
:10163C0003C0EAFFEECF00F000C001F03C0E011633
:10164C000132019E0132019E01500D0A35E1020E5C
:10165C005C24E96E000E5D20EA6EEECF01F0EECF59
:10166C0002F00250040A02E1280E011822E1020ED7
:10167C005C24E16E000E5D20E26E200EE66E040E20
:10168C00E66E806B080E805D14E2200EE16E040E97
:10169C00E26E8051E126D8B0E22A280EE96E040EE3
:1016AC00EA6E8051E926D8B0EA2AEECFE6FF802B0D
:1016BC00E9D7B0EC05F002D07FEC06F00ED0FD0EB1
:1016CC005B14016E026AFF0E0216000E021802E194
:1016DC00040E011802E12CEC06F000D001D003D06E
:0C16EC000001812B62D7A6EC05F0120073
:1016F8006FC073F070C074F071C075F0010E000116
:06170800766F74DE120092
:10170E0093929390939A93989396939481928190B7
:10171E00819481968198819AA8EC06F0A8EC06F047
:10172E00A8EC06F08188818A8182CADD8192A8ECBC
:10173E0006F08182C5DD8192A8EC06F08182C0DDC3
:10174E008192A8EC06F0819A8182BADD8192A8EC92
:10175E0006F08182B5DD8192819881848182B0DD2F
:10176E008192A8EC06F08194818A8182A9DD819212
:10177E00819A8182A5DD8192A8EC06F08182A0DD9E
:10178E008192818A81829CDD8192A8EC06F0819AF9
:10179E00818296DD8192818481868188818A81828F
:0E17AE008FDD8192A8EC06F000016081120030
:1017BC0010D0800E00016F6F1AD0C00E6F6F17D053
:1017CC00940E6F6F14D0D40E6F6F11D0800E6F6F9C
:1017DC000ED000016F51010AECE06F51020AEDE0EE
:1017EC006F51030AEDE06F51040AEDE0EFD770057D
:1017FC00006E6F51002600C06FF0608100C073F066
:0E180C009EDD609171C073F09ADD6081120064
:10181A00C26A291C006E0050C116070EC012C08E83
:10182A006FC000F000360090003600900050C212DF
:10183A00C28033DEC282C2A201D0FDD7C4CF01F07A
:0E184A00006AC3500012000E0112C29012007C
:101858005EC073F05FC074F0400E0001756F010E3A
:06186800766F37DD12006F
:10186E0044EC0DF00E0EC16E070EB46EFF0E926EAE
:10187E00956A836A936A816A000E00016F6F050E86
:10188E00706F400E716F050E726F23DE1A0E0B6EA7
:10189E005E0E0C6E6E0E0D6E0D2EFED70C2EFCD740
:1018AE000B2EFAD700002CDF0C0E736F47DDCDDF49
:1018BE000050000A01E1FBD705010051410AD8B4DE
:1018CE0083800051420AD8B483900051430AD8B4A1
:1018DE0083820051440AD8B483920051450AD8B489
:1018EE0083840051460AD8B483940051470AD8B471
:1018FE0083860051480AD8B483960051580A2FE1C6
:10190E00010E456E4550100812E3010E00016F6F77
:10191E0045C070F0000EE96E050EEA6E4550E926E0
:10192E00D8B0EA2AEECF71F042DF452AEBD7110E7E
:10193E00456E4550200813E30001020E6F6F100E26
:10194E00455C706F000EE96E050EEA6E4550E92695
:10195E00D8B0EA2AEECF71F02ADF452AEAD7050180
:10196E000051590A07E1010E0001736FE7DC800E8A
:10197E00736FE4DC050100515A0A34E100016F6B0C
:10198E0045DF00C002F001C003F003320232039EB5
:10199E0003320232039E02C040F5000E80B2010EE9
:1019AE000501416F300E4127000E80B4010E426FCB
:1019BE00300E4227000E80B6010E436F300E4327C5
:1019CE00000E80B8010E446F300E4427400E000109
:1019DE006F6F050E706F400E716F87DE0050000A3C
:0819EE0001E1F4D764D7FFD733
:101A880010EE29F0010E006E010E016E060EF66EC4
:0E1A9800000EF76E000EF86E68EC0AF01200F9
:0100060030C9
:1019F60009022900010100803209040000020300E7
:101A06000000092101010001222100070581034090
:091A160000010705010340000175
:101A1F000600FF0901A10119012940150026FF0049
:101A2F00750895408102190129407508954091026A
:011A3F00C0E6
:101A40001A03500072006F00640075006300740098
:0A1A50002D004E0061006D006500DE
:101A5A001803560065006E0064006F0072002D00C6
:081A6A004E0061006D006500F3
:101A72001201000200000008001000200001010213
:021A8200000161
:041A8400040309044A
:020000040030CA
:0E000000240C3F1EFF8381FF0FC00FE00F4056
:00000001FF
